:030000000208945F
:0C089400787FE4F6D8FD75812C0208DBAB
:100C330074726565733A00745F6469733A00636D37
:010C430000B0
:100C0200010800011000011100010F00C180C18123
:0C0C120002090000020D0000020B0000AF
:100BA600E4FDFCC3ED9FEC9E5015E4FBFA0BBB0085
:0F0BB600010ABA07F8BBD0F50DBD00010C80E4B1
:010BC500220D
:0F0C4400751005750F05D2A4C2A5D2A6C2A722AE
:0F0C530075100A750F0AC2A4D2A5C2A6D2A72295
:0E0C7100E4F510F50FD2A6C2A7C2A4D2A522A8
:0E0C7F00E4F510F50FD2A4C2A5C2A6D2A7229A
:090CA100C2A6C2A7C2A4C2A5228A
:100B410030011CE508D395105004D2A18002C2A146
:100B5100C3E5089414748094804006E4F50822C229
:020B6100A122CF
:100B630030001CE511D3950F5004D2A28002C2A21B
:100B7300C3E5119414748094804006E4F51122C2F5
:020B8300A222AC
:03000B00020B8560
:100B8500C0E0C0D0758CFC758A18050AE50A7002AC
:100B9500050905080511120B41120B63D0D0D0E0F1
:010BA500321D
:040CAA007F59DFFE91
:010CAE002223
:1009A20020860620850330841230860620850320A7
:1009B2008409308609308506308403020C4420867F
:1009C20009308506208403120CA130860620850397
:1009D200308409308609308506208403120C7F207A
:1009E2008606208503208409208609308506308406
:0509F20003120C71224C
:10092000758901758CFC758A18D28CD2A9D2AF1248
:100930000C1F7BFF7A0C79337D017F01120B1E7B2C
:10094000FF7A0C793A7D017F02120B1E7BFF7A0C35
:1009500079417D097F02120B1E751602AB0EAA0D9E
:100960007D077F01120AFA751602AB0CAA0B7D07F0
:100970007F02120AFA20B411120CAA30B4FD050E3F
:10098000E50E7002050D120CAA20B511120CAA304A
:10099000B5FD050EE50E7002050D120CAA1209A296
:0209A00080B71E
:060C6200C2B18F90D2B276
:080C68007F027EC7DEFEDFFC07
:010C70002261
:0A0C8D00C2B0120C62C2B2020C6881
:100BC600CFCDCFCECCCE12083F7C007D0A12083F97
:040BD600ED2430FFDB
:0A0BDA00D2B0120C62C2B2020C6825
:100BE400AE07EEFB7A0064017004ED148009EB6437
:0E0BF400024A7009ED243F4480FF120C8D224E
:100C1F007F38120C8D7F0C120C8D7F06120C8D7F7E
:040C2F0001020C8D25
:0A0C9700AC03120BE4AF04020BDA09
:060B1E008B128A138914FA
:100B2400120BE4E4FDAB12AA13A9148D82758300A1
:0C0B3400120800FF6006120BDA0D80E9C9
:010B40002292
:0A0AC900EF24FFFDEE34FFFC7F0A6E
:080AD3008E178F188C198D1A83
:100ADB007F017E00E4FBEBC3951AE5196480F87483
:0E0AEB008098500AAC17AD1812082D0B80E849
:010AF90022DA
:040AFA008A148B15BA
:100AFE00120BE4AA16EAFF7E00D394007480948051
:0F0B0E00400D120AC9AC14AD15120BC61A80E6C1
:010B1D0022B5
:040A42008B828A8396
:100A4600120BE4C3E58364809480400D7F2B120B68
:100A5600DA85832685822780107F2D120BDAC3E480
:100A66009582F527E49583F526AA25EAFF7E00D32D
:100A7600940074809480400D120AC9AC26AD2712EA
:050A86000BC61A80E61A
:010A8B002248
:0409F7008A1D8B1EAC
:1009FB00120BE4AA1FEAD39400748094804037EA68
:100A0B0024FFFDE434FFFC7F107E00120AD3AC1DE3
:100A1B00AD1ECFCDCFCECCCE12083FEF540FFEC3C1
:100A2B00940A74809480EE5004243080022437FFA3
:060A3B00120BDA1A80BF65
:010A41002292
:040A8C008A2A8B2BFC
:100A9000120BE4AA2CEAFF7E00D3940074809480A9
:100AA0004026EF24FFFDEE34FFFC7F02120AD3AC98
:100AB0002AAD2BCFCDCFCECCCE12083FEF540124A0
:080AC00030FF120BDA1A80CDA1
:010AC800220B
:1008A000020920E493A3F8E493A34003F68001F245
:1008B00008DFF48029E493A3F85407240CC8C33359
:1008C000C4540F4420C8834004F456800146F6DF28
:1008D000E4800B0102040810204080900C02E47EAA
:1008E000019360BCA3FF543F30E509541FFEE4931D
:1008F000A360010ECF54C025E060A840B8E493A3E4
:10090000FAE493A3F8E493A3C8C582C8CAC583CA0E
:10091000F0A3C8C582C8CAC583CADFE9DEE780BEC6
:010C1E0000D5
:10080000BB010CE58229F582E5833AF583E02250AD
:1008100006E92582F8E622BBFE06E92582F8E222F7
:0D082000E58229F582E5833AF583E4932211
:10082D00EF8DF0A4A8F0CF8CF0A428CE8DF0A42EDF
:02083D00FE2299
:10083F00BC000BBE0029EF8DF084FFADF022E4CC9D
:10084F00F875F008EF2FFFEE33FEEC33FCEE9DEC66
:10085F00984005FCEE9DFE0FD5F0E9E4CEFD22EDAC
:10086F00F8F5F0EE8420D21CFEADF075F008EF2FF6
:10087F00FFED33FD4007985006D5F0F222C398FDE7
:05088F000FD5F0EA2284
:00000001FF
