:030000000208945F
:0C089400787FE4F6D8FD75812C0208DBAB
:020C0800680082
:100B7700010F00011300011400011200C180C1819F
:040B87000210000058
:100B1B00E4FDFCC3ED9FEC9E5015E4FBFA0BBB0010
:0F0B2B00010ABA07F8BBD0F50DBD00010C80E43C
:010B3A002298
:0F0BA00075130F75120FD2A4C2A5D2A6C2A72239
:0F0BAF0075130F75120FC2A4D2A5C2A6D2A7222A
:0F0BBE0075130575120FD2A6C2A7C2A4D2A52225
:0F0BCD00751310751208D2A4C2A5C2A6D2A72212
:090BFF00C2A6C2A7C2A4C2A5222D
:100AB60030011CE50FD395135004D2A18002C2A1C8
:100AC600C3E50F9414748094804006E4F50F22C2A7
:020AD600A1225B
:100AD80030001CE514D395125004D2A28002C2A2A1
:100AE800C3E5149414748094804006E4F51422C27B
:020AF800A22238
:03000B00020AFAEC
:100AFA00C0E0C0D0758CFC758A180511E51170022A
:100B0A000510050F0514120AB6120AD8D0D0D0E083
:010B1A0032A8
:10092000758901758CFC758A18D28CD2A9D2AF7BDF
:10093000087D017F01120BF520B70A20B607D2A36C
:10094000120BFF80EA30B70A20B607D2A3120BBE03
:1009500080DD30B60A20B707D2A3120BCD80D0308D
:0C096000B6CD30B7CAD2A3120BFF80C383
:060BDC00C2918F80D2924D
:080BE2007F027EEFDEFEDFFC66
:010BEA0022E8
:0A0BEB00C290120BDCC292020BE272
:100B3B00CFCDCFCECCCE12083F7C007D0A12083F22
:040B4B00ED2430FF66
:0A0B4F00D290120BDCC292020BE2FE
:100B5900AE07EEFB7A0064017004ED148009EB64C2
:0E0B6900024A7009ED243F4480FF120BEB227C
:100B8C007F38120BEB7F0C120BEB7F06120BEB7FFB
:040B9C0001020BEB5C
:0A0BF500AC03120B59AF04020B4FC2
:060A93008B2A8A2B892C3E
:100A9900120B59E4FDAB2AAA2BA92C8D8275830070
:0C0AA900120800FF6006120B4F0D80E9E0
:010AB500221E
:0A0A3E00EF24FFFDEE34FFFC7F0AF9
:080A48008E268F278C288D29D2
:100A50007F017E00E4FBEBC39529E5286480F874F0
:0E0A60008098500AAC26AD2712082D0B80E8B6
:010A6E002265
:040A6F008A178B183F
:100A7300120B59AA19EAFF7E00D394007480948064
:0F0A8300400D120A3EAC17AD18120B3B1A80E65D
:010A92002241
:0409B7008B828A8322
:1009BB00120B59C3E58364809480400D7F2B120B7F
:1009CB004F85830D85820E80107F2D120B4FC3E454
:1009DB009582F50EE49583F50DAA0CEAFF7E00D304
:1009EB00940074809480400D120A3EAC0DAD0E1233
:0509FB000B3B1A80E631
:010A000022D3
:04096C008A1C8B1D39
:10097000120B59AA1EEAD39400748094804037EA7F
:1009800024FFFDE434FFFC7F107E00120A48AC1CFB
:10099000AD1DCFCDCFCECCCE12083FEF540FFEC34E
:1009A000940A74809480EE5004243080022437FF2F
:0609B000120B4F1A80BF7C
:0109B600221E
:040A01008A238B2495
:100A0500120B59AA25EAFF7E00D3940074809480C6
:100A15004026EF24FFFDEE34FFFC7F02120A48ACAE
:100A250023AD24CFCDCFCECCCE12083FEF54012439
:080A350030FF120B4F1A80CDB7
:010A3D002296
:1008A000020920E493A3F8E493A34003F68001F245
:1008B00008DFF48029E493A3F85407240CC8C33359
:1008C000C4540F4420C8834004F456800146F6DF28
:1008D000E4800B0102040810204080900B77E47E36
:1008E000019360BCA3FF543F30E509541FFEE4931D
:1008F000A360010ECF54C025E060A840B8E493A3E4
:10090000FAE493A3F8E493A3C8C582C8CAC583CA0E
:10091000F0A3C8C582C8CAC583CADFE9DEE780BEC6
:010B8B000069
:10080000BB010CE58229F582E5833AF583E02250AD
:1008100006E92582F8E622BBFE06E92582F8E222F7
:0D082000E58229F582E5833AF583E4932211
:10082D00EF8DF0A4A8F0CF8CF0A428CE8DF0A42EDF
:02083D00FE2299
:10083F00BC000BBE0029EF8DF084FFADF022E4CC9D
:10084F00F875F008EF2FFFEE33FEEC33FCEE9DEC66
:10085F00984005FCEE9DFE0FD5F0E9E4CEFD22EDAC
:10086F00F8F5F0EE8420D21CFEADF075F008EF2FF6
:10087F00FFED33FD4007985006D5F0F222C398FDE7
:05088F000FD5F0EA2284
:00000001FF
